:100000000AC008C007C006C005C004C003C002C0C3
:1000100001C000C01895112410E0A0E6B0E0E6E5AC
:10002000F1E002C005900D92A039B107D9F720E0A8
:10003000A0E9B0E001C01D92A239B207E1F783E068
:1000400087BBBB9AC39A2FEF8BE49DE12150804080
:100050009040E1F700C0000011BE81B78F3798F5DE
:1000600081B7282F30E094E0359527959A95E1F7F0
:1000700040E3420F409391008F7090E3980F90936C
:1000800090004A3318F0295C209391009A3318F0BD
:10009000895C8093900069E180E332D069E188E770
:1000A0002FD069E1809191002BD069E1809190007F
:1000B00027D069E180E224D080E690E040D081B78B
:1000C0008F5F81BFCACF8CE581BFEFEFFBE42DE1ED
:1000D000E150F0402040E1F700C0000083E790E0ED
:1000E0002ED083E790E02BD089EE93E006C0EFE5B9
:1000F000F9E03197F1F700C000000197C1F7F1CFA7
:10010000F894BB9AC39808B293E0262F2A95F1F78A
:1001100080FB03F89695879508BAB9F71895BB98B0
:10012000282F80E8B399FECFF8942150F1F7262FBD
:10013000B39908948795C8F72A95F1F71895CF9346
:10014000DF93EC018991882319F069E1D9DFFACFB7
:06015000DF91CF9108953C
:100156004F534343414C2066696E652074756E6546
:100166000D0A000D0A417474696E79313320686591
:100176006C6C6F207869616F6C6162610D0A0000BA
:00000001FF
